{
  "_format": "hh-sol-artifact-1",
  "contractName": "StudentManagement",
  "sourceName": "contracts/Lock.sol",
  "abi": [
    {
      "inputs": [],
      "stateMutability": "nonpayable",
      "type": "constructor"
    },
    {
      "anonymous": false,
      "inputs": [
        {
          "indexed": true,
          "internalType": "string",
          "name": "name",
          "type": "string"
        },
        {
          "indexed": true,
          "internalType": "string",
          "name": "class",
          "type": "string"
        },
        {
          "indexed": true,
          "internalType": "uint8",
          "name": "age",
          "type": "uint8"
        }
      ],
      "name": "CreatedStudent",
      "type": "event"
    },
    {
      "inputs": [
        {
          "internalType": "uint8",
          "name": "studentId_",
          "type": "uint8"
        }
      ],
      "name": "deleteStudent",
      "outputs": [],
      "stateMutability": "nonpayable",
      "type": "function"
    },
    {
      "inputs": [
        {
          "internalType": "uint8",
          "name": "studentId_",
          "type": "uint8"
        },
        {
          "internalType": "string",
          "name": "_name",
          "type": "string"
        },
        {
          "internalType": "uint8",
          "name": "_age",
          "type": "uint8"
        },
        {
          "internalType": "string",
          "name": "_class",
          "type": "string"
        },
        {
          "internalType": "enum StudentManagement.Gender",
          "name": "_gender",
          "type": "uint8"
        }
      ],
      "name": "editStudent",
      "outputs": [],
      "stateMutability": "nonpayable",
      "type": "function"
    },
    {
      "inputs": [
        {
          "internalType": "uint8",
          "name": "studentId_",
          "type": "uint8"
        }
      ],
      "name": "getStudent",
      "outputs": [
        {
          "components": [
            {
              "internalType": "string",
              "name": "name",
              "type": "string"
            },
            {
              "internalType": "uint8",
              "name": "age",
              "type": "uint8"
            },
            {
              "internalType": "string",
              "name": "class",
              "type": "string"
            },
            {
              "internalType": "enum StudentManagement.Gender",
              "name": "gender",
              "type": "uint8"
            }
          ],
          "internalType": "struct StudentManagement.Student",
          "name": "student_",
          "type": "tuple"
        }
      ],
      "stateMutability": "view",
      "type": "function"
    },
    {
      "inputs": [],
      "name": "getStudents",
      "outputs": [
        {
          "components": [
            {
              "internalType": "string",
              "name": "name",
              "type": "string"
            },
            {
              "internalType": "uint8",
              "name": "age",
              "type": "uint8"
            },
            {
              "internalType": "string",
              "name": "class",
              "type": "string"
            },
            {
              "internalType": "enum StudentManagement.Gender",
              "name": "gender",
              "type": "uint8"
            }
          ],
          "internalType": "struct StudentManagement.Student[]",
          "name": "students_",
          "type": "tuple[]"
        }
      ],
      "stateMutability": "view",
      "type": "function"
    },
    {
      "inputs": [
        {
          "internalType": "string",
          "name": "_name",
          "type": "string"
        },
        {
          "internalType": "uint8",
          "name": "_age",
          "type": "uint8"
        },
        {
          "internalType": "string",
          "name": "_class",
          "type": "string"
        },
        {
          "internalType": "enum StudentManagement.Gender",
          "name": "_gender",
          "type": "uint8"
        }
      ],
      "name": "registerStudent",
      "outputs": [],
      "stateMutability": "nonpayable",
      "type": "function"
    }
  ],
  "bytecode": "0x60806040526000600360006101000a81548160ff021916908360ff160217905550348015602b57600080fd5b50336000806101000a81548173ffffffffffffffffffffffffffffffffffffffff021916908373ffffffffffffffffffffffffffffffffffffffff1602179055506117ff8061007b6000396000f3fe608060405234801561001057600080fd5b50600436106100575760003560e01c80631fd308921461005c578063306ffb7a1461008c5780633621ad67146100a85780637fe8c909146100c4578063f1d064b3146100e0575b600080fd5b61007660048036038101906100719190610c79565b6100fe565b6040516100839190610e26565b60405180910390f35b6100a660048036038101906100a19190610fa2565b6102ad565b005b6100c260048036038101906100bd9190610c79565b61047a565b005b6100de60048036038101906100d99190611055565b6105d8565b005b6100e8610835565b6040516100f59190611220565b60405180910390f35b610106610b88565b600260008360ff1660ff16815260200190815260200160002060405180608001604052908160008201805461013a90611271565b80601f016020809104026020016040519081016040528092919081815260200182805461016690611271565b80156101b35780601f10610188576101008083540402835291602001916101b3565b820191906000526020600020905b81548152906001019060200180831161019657829003601f168201915b505050505081526020016001820160009054906101000a900460ff1660ff1660ff1681526020016002820180546101e990611271565b80601f016020809104026020016040519081016040528092919081815260200182805461021590611271565b80156102625780601f1061023757610100808354040283529160200191610262565b820191906000526020600020905b81548152906001019060200180831161024557829003601f168201915b505050505081526020016003820160009054906101000a900460ff1660018111156102905761028f610d45565b5b60018111156102a2576102a1610d45565b5b815250509050919050565b60008054906101000a900473ffffffffffffffffffffffffffffffffffffffff1673ffffffffffffffffffffffffffffffffffffffff163373ffffffffffffffffffffffffffffffffffffffff161461033b576040517f08c379a0000000000000000000000000000000000000000000000000000000008152600401610332906112ff565b60405180910390fd5b84600360009054906101000a900460ff1660ff168160ff1611158015610364575060008160ff16115b6103a3576040517f08c379a000000000000000000000000000000000000000000000000000000000815260040161039a9061136b565b60405180910390fd5b60405180608001604052808681526020018560ff1681526020018481526020018360018111156103d6576103d5610d45565b5b815250600260008860ff1660ff16815260200190815260200160002060008201518160000190816104079190611541565b5060208201518160010160006101000a81548160ff021916908360ff160217905550604082015181600201908161043e9190611541565b5060608201518160030160006101000a81548160ff0219169083600181111561046a57610469610d45565b5b0217905550905050505050505050565b60008054906101000a900473ffffffffffffffffffffffffffffffffffffffff1673ffffffffffffffffffffffffffffffffffffffff163373ffffffffffffffffffffffffffffffffffffffff1614610508576040517f08c379a00000000000000000000000000000000000000000000000000000000081526004016104ff906112ff565b60405180910390fd5b80600360009054906101000a900460ff1660ff168160ff1611158015610531575060008160ff16115b610570576040517f08c379a00000000000000000000000000000000000000000000000000000000081526004016105679061136b565b60405180910390fd5b600260008360ff1660ff1681526020019081526020016000206000808201600061059a9190610bc5565b6001820160006101000a81549060ff02191690556002820160006105be9190610bc5565b6003820160006101000a81549060ff021916905550505050565b60008054906101000a900473ffffffffffffffffffffffffffffffffffffffff1673ffffffffffffffffffffffffffffffffffffffff163373ffffffffffffffffffffffffffffffffffffffff1614610666576040517f08c379a000000000000000000000000000000000000000000000000000000000815260040161065d906112ff565b60405180910390fd5b600060405180608001604052808681526020018560ff16815260200184815260200183600181111561069b5761069a610d45565b5b81525090506003600081819054906101000a900460ff16809291906106bf90611642565b91906101000a81548160ff021916908360ff160217905550508060026000600360009054906101000a900460ff1660ff1660ff16815260200190815260200160002060008201518160000190816107169190611541565b5060208201518160010160006101000a81548160ff021916908360ff160217905550604082015181600201908161074d9190611541565b5060608201518160030160006101000a81548160ff0219169083600181111561077957610778610d45565b5b02179055509050506107d26040518060400160405280601e81526020017f53747564656e74207265676973746572656420776974682069643a2025730000815250600360009054906101000a900460ff1660ff16610aa6565b8360ff16836040516107e491906116a7565b6040518091039020866040516107fa91906116a7565b60405180910390207fceb2073d48f2f700e39fd42fceb7dc2e655c683907e09baadee22d17e015664060405160405180910390a45050505050565b6060600360009054906101000a900460ff1660ff1667ffffffffffffffff81111561086357610862610e52565b5b60405190808252806020026020018201604052801561089c57816020015b610889610b88565b8152602001906001900390816108815790505b5090506000600190505b600360009054906101000a900460ff1660ff168160ff1611610aa257600260008260ff1660ff1681526020019081526020016000206040518060800160405290816000820180546108f690611271565b80601f016020809104026020016040519081016040528092919081815260200182805461092290611271565b801561096f5780601f106109445761010080835404028352916020019161096f565b820191906000526020600020905b81548152906001019060200180831161095257829003601f168201915b505050505081526020016001820160009054906101000a900460ff1660ff1660ff1681526020016002820180546109a590611271565b80601f01602080910402602001604051908101604052809291908181526020018280546109d190611271565b8015610a1e5780601f106109f357610100808354040283529160200191610a1e565b820191906000526020600020905b815481529060010190602001808311610a0157829003601f168201915b505050505081526020016003820160009054906101000a900460ff166001811115610a4c57610a4b610d45565b5b6001811115610a5e57610a5d610d45565b5b8152505082600183610a7091906116be565b60ff1681518110610a8457610a836116f3565b5b60200260200101819052508080610a9a90611642565b9150506108a6565b5090565b610b3e8282604051602401610abc92919061176a565b6040516020818303038152906040527fb60e72cc000000000000000000000000000000000000000000000000000000007bffffffffffffffffffffffffffffffffffffffffffffffffffffffff19166020820180517bffffffffffffffffffffffffffffffffffffffffffffffffffffffff8381831617835250505050610b42565b5050565b610b5981610b51610b5c610b7d565b63ffffffff16565b50565b60006a636f6e736f6c652e6c6f679050600080835160208501845afa505050565b610c05819050919050565b604051806080016040528060608152602001600060ff1681526020016060815260200160006001811115610bbf57610bbe610d45565b5b81525090565b508054610bd190611271565b6000825580601f10610be35750610c02565b601f016020900490600052602060002090810190610c019190610c0f565b5b50565b610c0d61179a565b565b5b80821115610c28576000816000905550600101610c10565b5090565b6000604051905090565b600080fd5b600080fd5b600060ff82169050919050565b610c5681610c40565b8114610c6157600080fd5b50565b600081359050610c7381610c4d565b92915050565b600060208284031215610c8f57610c8e610c36565b5b6000610c9d84828501610c64565b91505092915050565b600081519050919050565b600082825260208201905092915050565b60005b83811015610ce0578082015181840152602081019050610cc5565b60008484015250505050565b6000601f19601f8301169050919050565b6000610d0882610ca6565b610d128185610cb1565b9350610d22818560208601610cc2565b610d2b81610cec565b840191505092915050565b610d3f81610c40565b82525050565b7f4e487b7100000000000000000000000000000000000000000000000000000000600052602160045260246000fd5b60028110610d8557610d84610d45565b5b50565b6000819050610d9682610d74565b919050565b6000610da682610d88565b9050919050565b610db681610d9b565b82525050565b60006080830160008301518482036000860152610dd98282610cfd565b9150506020830151610dee6020860182610d36565b5060408301518482036040860152610e068282610cfd565b9150506060830151610e1b6060860182610dad565b508091505092915050565b60006020820190508181036000830152610e408184610dbc565b905092915050565b600080fd5b600080fd5b7f4e487b7100000000000000000000000000000000000000000000000000000000600052604160045260246000fd5b610e8a82610cec565b810181811067ffffffffffffffff82111715610ea957610ea8610e52565b5b80604052505050565b6000610ebc610c2c565b9050610ec88282610e81565b919050565b600067ffffffffffffffff821115610ee857610ee7610e52565b5b610ef182610cec565b9050602081019050919050565b82818337600083830152505050565b6000610f20610f1b84610ecd565b610eb2565b905082815260208101848484011115610f3c57610f3b610e4d565b5b610f47848285610efe565b509392505050565b600082601f830112610f6457610f63610e48565b5b8135610f74848260208601610f0d565b91505092915050565b60028110610f8a57600080fd5b50565b600081359050610f9c81610f7d565b92915050565b600080600080600060a08688031215610fbe57610fbd610c36565b5b6000610fcc88828901610c64565b955050602086013567ffffffffffffffff811115610fed57610fec610c3b565b5b610ff988828901610f4f565b945050604061100a88828901610c64565b935050606086013567ffffffffffffffff81111561102b5761102a610c3b565b5b61103788828901610f4f565b925050608061104888828901610f8d565b9150509295509295909350565b6000806000806080858703121561106f5761106e610c36565b5b600085013567ffffffffffffffff81111561108d5761108c610c3b565b5b61109987828801610f4f565b94505060206110aa87828801610c64565b935050604085013567ffffffffffffffff8111156110cb576110ca610c3b565b5b6110d787828801610f4f565b92505060606110e887828801610f8d565b91505092959194509250565b600081519050919050565b600082825260208201905092915050565b6000819050602082019050919050565b6000608083016000830151848203600086015261113d8282610cfd565b91505060208301516111526020860182610d36565b506040830151848203604086015261116a8282610cfd565b915050606083015161117f6060860182610dad565b508091505092915050565b60006111968383611120565b905092915050565b6000602082019050919050565b60006111b6826110f4565b6111c081856110ff565b9350836020820285016111d285611110565b8060005b8581101561120e57848403895281516111ef858261118a565b94506111fa8361119e565b925060208a019950506001810190506111d6565b50829750879550505050505092915050565b6000602082019050818103600083015261123a81846111ab565b905092915050565b7f4e487b7100000000000000000000000000000000000000000000000000000000600052602260045260246000fd5b6000600282049050600182168061128957607f821691505b60208210810361129c5761129b611242565b5b50919050565b600082825260208201905092915050565b7f596f7520617265206e6f74207468652061646d696e0000000000000000000000600082015250565b60006112e96015836112a2565b91506112f4826112b3565b602082019050919050565b60006020820190508181036000830152611318816112dc565b9050919050565b7f50726f7669646520612076616c69642073747564656e74204964000000000000600082015250565b6000611355601a836112a2565b91506113608261131f565b602082019050919050565b6000602082019050818103600083015261138481611348565b9050919050565b60008190508160005260206000209050919050565b60006020601f8301049050919050565b600082821b905092915050565b6000600883026113ed7fffffffffffffffffffffffffffffffffffffffffffffffffffffffffffffffff826113b0565b6113f786836113b0565b95508019841693508086168417925050509392505050565b6000819050919050565b6000819050919050565b600061143e6114396114348461140f565b611419565b61140f565b9050919050565b6000819050919050565b61145883611423565b61146c61146482611445565b8484546113bd565b825550505050565b600090565b611481611474565b61148c81848461144f565b505050565b5b818110156114b0576114a5600082611479565b600181019050611492565b5050565b601f8211156114f5576114c68161138b565b6114cf846113a0565b810160208510156114de578190505b6114f26114ea856113a0565b830182611491565b50505b505050565b600082821c905092915050565b6000611518600019846008026114fa565b1980831691505092915050565b60006115318383611507565b9150826002028217905092915050565b61154a82610ca6565b67ffffffffffffffff81111561156357611562610e52565b5b61156d8254611271565b6115788282856114b4565b600060209050601f8311600181146115ab5760008415611599578287015190505b6115a38582611525565b86555061160b565b601f1984166115b98661138b565b60005b828110156115e1578489015182556001820191506020850194506020810190506115bc565b868310156115fe57848901516115fa601f891682611507565b8355505b6001600288020188555050505b505050505050565b7f4e487b7100000000000000000000000000000000000000000000000000000000600052601160045260246000fd5b600061164d82610c40565b915060ff82036116605761165f611613565b5b600182019050919050565b600081905092915050565b600061168182610ca6565b61168b818561166b565b935061169b818560208601610cc2565b80840191505092915050565b60006116b38284611676565b915081905092915050565b60006116c982610c40565b91506116d483610c40565b9250828203905060ff8111156116ed576116ec611613565b5b92915050565b7f4e487b7100000000000000000000000000000000000000000000000000000000600052603260045260246000fd5b600061172d82610ca6565b61173781856112a2565b9350611747818560208601610cc2565b61175081610cec565b840191505092915050565b6117648161140f565b82525050565b600060408201905081810360008301526117848185611722565b9050611793602083018461175b565b9392505050565b7f4e487b7100000000000000000000000000000000000000000000000000000000600052605160045260246000fdfea264697066735822122087fd8f9e05c051a1cba60d24a25a15f24d2bc488742b9f5f7c0dc8f1ca04a21264736f6c634300081c0033",
  "linkReferences": {},
  "deployedLinkReferences": {}
}